{
  "contractName": "Fruits",
  "abi": [
    {
      "constant": false,
      "inputs": [
        {
          "internalType": "string",
          "name": "fruitName",
          "type": "string"
        }
      ],
      "name": "addFruit",
      "outputs": [],
      "payable": false,
      "stateMutability": "nonpayable",
      "type": "function"
    },
    {
      "constant": false,
      "inputs": [
        {
          "internalType": "uint256",
          "name": "fruitIndex",
          "type": "uint256"
        },
        {
          "internalType": "string",
          "name": "newFruitName",
          "type": "string"
        }
      ],
      "name": "updateFruit",
      "outputs": [
        {
          "internalType": "bool",
          "name": "",
          "type": "bool"
        }
      ],
      "payable": false,
      "stateMutability": "nonpayable",
      "type": "function"
    },
    {
      "constant": false,
      "inputs": [
        {
          "internalType": "uint256",
          "name": "fruitIndex",
          "type": "uint256"
        }
      ],
      "name": "deleteFruit",
      "outputs": [
        {
          "internalType": "bool",
          "name": "",
          "type": "bool"
        }
      ],
      "payable": false,
      "stateMutability": "nonpayable",
      "type": "function"
    },
    {
      "constant": true,
      "inputs": [],
      "name": "getFruits",
      "outputs": [
        {
          "internalType": "string[]",
          "name": "",
          "type": "string[]"
        }
      ],
      "payable": false,
      "stateMutability": "view",
      "type": "function"
    }
  ],
  "bytecode": "0x608060405234801561001057600080fd5b5061083f806100206000396000f3fe608060405234801561001057600080fd5b506004361061004c5760003560e01c806324050cd9146100515780639094f27f1461006d578063e6958cf71461009d578063f8202be3146100bb575b600080fd5b61006b60048036036100669190810190610502565b6100eb565b005b61008760048036036100829190810190610543565b61012d565b60405161009491906106b3565b60405180910390f35b6100a56101ed565b6040516100b29190610691565b60405180910390f35b6100d560048036036100d0919081019061056c565b6102d6565b6040516100e291906106b3565b60405180910390f35b6000819080600181540180825580915050906001820390600052602060002001600090919290919091509080519060200190610128929190610325565b505050565b60008160008054905011156101e35760008290505b6001600080549050038110156101b0576000600182018154811061016257fe5b906000526020600020016000828154811061017957fe5b9060005260206000200190805460018160011615610100020316600290046101a29291906103a5565b508080600101915050610142565b5060008054806101bc57fe5b6001900381819060005260206000200160006101d8919061042c565b9055600190506101e8565b600090505b919050565b60606000805480602002602001604051908101604052809291908181526020016000905b828210156102cd578382906000526020600020018054600181600116156101000203166002900480601f0160208091040260200160405190810160405280929190818152602001828054600181600116156101000203166002900480156102b95780601f1061028e576101008083540402835291602001916102b9565b820191906000526020600020905b81548152906001019060200180831161029c57829003601f168201915b505050505081526020019060010190610211565b50505050905090565b600082600080549050111561031a5781600084815481106102f357fe5b906000526020600020019080519060200190610310929190610325565b506001905061031f565b600090505b92915050565b828054600181600116156101000203166002900490600052602060002090601f016020900481019282601f1061036657805160ff1916838001178555610394565b82800160010185558215610394579182015b82811115610393578251825591602001919060010190610378565b5b5090506103a19190610474565b5090565b828054600181600116156101000203166002900490600052602060002090601f016020900481019282601f106103de578054855561041b565b8280016001018555821561041b57600052602060002091601f016020900482015b8281111561041a5782548255916001019190600101906103ff565b5b5090506104289190610474565b5090565b50805460018160011615610100020316600290046000825580601f106104525750610471565b601f0160209004906000526020600020908101906104709190610474565b5b50565b61049691905b8082111561049257600081600090555060010161047a565b5090565b90565b600082601f8301126104aa57600080fd5b81356104bd6104b8826106fb565b6106ce565b915080825260208301602083018583830111156104d957600080fd5b6104e4838284610792565b50505092915050565b6000813590506104fc816107e5565b92915050565b60006020828403121561051457600080fd5b600082013567ffffffffffffffff81111561052e57600080fd5b61053a84828501610499565b91505092915050565b60006020828403121561055557600080fd5b6000610563848285016104ed565b91505092915050565b6000806040838503121561057f57600080fd5b600061058d858286016104ed565b925050602083013567ffffffffffffffff8111156105aa57600080fd5b6105b685828601610499565b9150509250929050565b60006105cc8383610658565b905092915050565b60006105df82610737565b6105e9818561075a565b9350836020820285016105fb85610727565b8060005b85811015610637578484038952815161061885826105c0565b94506106238361074d565b925060208a019950506001810190506105ff565b50829750879550505050505092915050565b6106528161077c565b82525050565b600061066382610742565b61066d818561076b565b935061067d8185602086016107a1565b610686816107d4565b840191505092915050565b600060208201905081810360008301526106ab81846105d4565b905092915050565b60006020820190506106c86000830184610649565b92915050565b6000604051905081810181811067ffffffffffffffff821117156106f157600080fd5b8060405250919050565b600067ffffffffffffffff82111561071257600080fd5b601f19601f8301169050602081019050919050565b6000819050602082019050919050565b600081519050919050565b600081519050919050565b6000602082019050919050565b600082825260208201905092915050565b600082825260208201905092915050565b60008115159050919050565b6000819050919050565b82818337600083830152505050565b60005b838110156107bf5780820151818401526020810190506107a4565b838111156107ce576000848401525b50505050565b6000601f19601f8301169050919050565b6107ee81610788565b81146107f957600080fd5b5056fea365627a7a723158207f6edf37cb8176531d3748e95318aee622bcaa22d757c59df1f37f4581cb8a666c6578706572696d656e74616cf564736f6c63430005100040",
  "source": "// SPDX-License-Identifier: MIT\npragma solidity >=0.4.21 <0.7.0;\npragma experimental ABIEncoderV2;\n\ncontract Fruits {\n  string[] myFruits;\n\n  function addFruit(string memory fruitName) public {\n    myFruits.push(fruitName);\n  }\n\n  function updateFruit(uint fruitIndex, string memory newFruitName) public returns (bool) {\n    if (myFruits.length > fruitIndex) {\n      myFruits[fruitIndex] = newFruitName;\n      return true;\n    }\n    return false;\n  }\n\n  function deleteFruit(uint fruitIndex) public returns (bool) {\n    if (myFruits.length > fruitIndex) {\n      for (uint i = fruitIndex; i < myFruits.length - 1; i++) {\n        myFruits[i] = myFruits[i+1];\n      }\n      \n      myFruits.pop();\n\n      return true;\n    }\n\n    return false;\n  }\n\n  function getFruits() public view returns (string[] memory) {\n    return myFruits;\n  }\n}",
  "sourcePath": "/home/janus/work/solidity_tutorial/truffle-react/contracts/Fruits.sol",
  "compiler": {
    "name": "solc",
    "version": "0.5.16+commit.9c3226ce.Emscripten.clang"
  },
  "schemaVersion": "3.4.3",
  "updatedAt": "2021-12-13T04:36:00.205Z",
  "networkType": "ethereum",
  "devdoc": {
    "methods": {}
  },
  "userdoc": {
    "methods": {}
  }
}