{
  "contractName": "DevToken",
  "abi": [
    {
      "inputs": [
        {
          "internalType": "string",
          "name": "token_name",
          "type": "string"
        },
        {
          "internalType": "string",
          "name": "short_symbol",
          "type": "string"
        },
        {
          "internalType": "uint8",
          "name": "token_decimals",
          "type": "uint8"
        },
        {
          "internalType": "uint256",
          "name": "token_totalSupply",
          "type": "uint256"
        }
      ],
      "stateMutability": "nonpayable",
      "type": "constructor"
    },
    {
      "anonymous": false,
      "inputs": [
        {
          "indexed": true,
          "internalType": "address",
          "name": "owner",
          "type": "address"
        },
        {
          "indexed": true,
          "internalType": "address",
          "name": "spender",
          "type": "address"
        },
        {
          "indexed": false,
          "internalType": "uint256",
          "name": "value",
          "type": "uint256"
        }
      ],
      "name": "Approval",
      "type": "event"
    },
    {
      "anonymous": false,
      "inputs": [
        {
          "indexed": true,
          "internalType": "address",
          "name": "previousOwner",
          "type": "address"
        },
        {
          "indexed": true,
          "internalType": "address",
          "name": "newOwner",
          "type": "address"
        }
      ],
      "name": "OwnershipTransferred",
      "type": "event"
    },
    {
      "anonymous": false,
      "inputs": [
        {
          "indexed": true,
          "internalType": "address",
          "name": "user",
          "type": "address"
        },
        {
          "indexed": false,
          "internalType": "uint256",
          "name": "amount",
          "type": "uint256"
        },
        {
          "indexed": false,
          "internalType": "uint256",
          "name": "index",
          "type": "uint256"
        },
        {
          "indexed": false,
          "internalType": "uint256",
          "name": "timestamp",
          "type": "uint256"
        }
      ],
      "name": "Staked",
      "type": "event"
    },
    {
      "anonymous": false,
      "inputs": [
        {
          "indexed": true,
          "internalType": "address",
          "name": "from",
          "type": "address"
        },
        {
          "indexed": true,
          "internalType": "address",
          "name": "to",
          "type": "address"
        },
        {
          "indexed": false,
          "internalType": "uint256",
          "name": "value",
          "type": "uint256"
        }
      ],
      "name": "Transfer",
      "type": "event"
    },
    {
      "inputs": [
        {
          "internalType": "address",
          "name": "_staker",
          "type": "address"
        }
      ],
      "name": "hasStake",
      "outputs": [
        {
          "components": [
            {
              "internalType": "uint256",
              "name": "total_amount",
              "type": "uint256"
            },
            {
              "components": [
                {
                  "internalType": "address",
                  "name": "user",
                  "type": "address"
                },
                {
                  "internalType": "uint256",
                  "name": "amount",
                  "type": "uint256"
                },
                {
                  "internalType": "uint256",
                  "name": "since",
                  "type": "uint256"
                },
                {
                  "internalType": "uint256",
                  "name": "claimable",
                  "type": "uint256"
                }
              ],
              "internalType": "struct Stakeable.Stake[]",
              "name": "stakes",
              "type": "tuple[]"
            }
          ],
          "internalType": "struct Stakeable.StakingSummary",
          "name": "",
          "type": "tuple"
        }
      ],
      "stateMutability": "view",
      "type": "function",
      "constant": true
    },
    {
      "inputs": [],
      "name": "owner",
      "outputs": [
        {
          "internalType": "address",
          "name": "",
          "type": "address"
        }
      ],
      "stateMutability": "view",
      "type": "function",
      "constant": true
    },
    {
      "inputs": [],
      "name": "renounceOwnership",
      "outputs": [],
      "stateMutability": "nonpayable",
      "type": "function"
    },
    {
      "inputs": [
        {
          "internalType": "address",
          "name": "newOwner",
          "type": "address"
        }
      ],
      "name": "transferOwnership",
      "outputs": [],
      "stateMutability": "nonpayable",
      "type": "function"
    },
    {
      "inputs": [],
      "name": "decimals",
      "outputs": [
        {
          "internalType": "uint8",
          "name": "",
          "type": "uint8"
        }
      ],
      "stateMutability": "view",
      "type": "function",
      "constant": true
    },
    {
      "inputs": [],
      "name": "symbol",
      "outputs": [
        {
          "internalType": "string",
          "name": "",
          "type": "string"
        }
      ],
      "stateMutability": "view",
      "type": "function",
      "constant": true
    },
    {
      "inputs": [],
      "name": "name",
      "outputs": [
        {
          "internalType": "string",
          "name": "",
          "type": "string"
        }
      ],
      "stateMutability": "view",
      "type": "function",
      "constant": true
    },
    {
      "inputs": [],
      "name": "totalSupply",
      "outputs": [
        {
          "internalType": "uint256",
          "name": "",
          "type": "uint256"
        }
      ],
      "stateMutability": "view",
      "type": "function",
      "constant": true
    },
    {
      "inputs": [
        {
          "internalType": "address",
          "name": "account",
          "type": "address"
        }
      ],
      "name": "balanceOf",
      "outputs": [
        {
          "internalType": "uint256",
          "name": "",
          "type": "uint256"
        }
      ],
      "stateMutability": "view",
      "type": "function",
      "constant": true
    },
    {
      "inputs": [],
      "name": "getOwner",
      "outputs": [
        {
          "internalType": "address",
          "name": "",
          "type": "address"
        }
      ],
      "stateMutability": "view",
      "type": "function",
      "constant": true
    },
    {
      "inputs": [
        {
          "internalType": "address",
          "name": "owner",
          "type": "address"
        },
        {
          "internalType": "address",
          "name": "spender",
          "type": "address"
        }
      ],
      "name": "allowance",
      "outputs": [
        {
          "internalType": "uint256",
          "name": "",
          "type": "uint256"
        }
      ],
      "stateMutability": "view",
      "type": "function",
      "constant": true
    },
    {
      "inputs": [
        {
          "internalType": "address",
          "name": "account",
          "type": "address"
        },
        {
          "internalType": "uint256",
          "name": "amount",
          "type": "uint256"
        }
      ],
      "name": "mint",
      "outputs": [
        {
          "internalType": "bool",
          "name": "",
          "type": "bool"
        }
      ],
      "stateMutability": "nonpayable",
      "type": "function"
    },
    {
      "inputs": [
        {
          "internalType": "address",
          "name": "account",
          "type": "address"
        },
        {
          "internalType": "uint256",
          "name": "amount",
          "type": "uint256"
        }
      ],
      "name": "burn",
      "outputs": [
        {
          "internalType": "bool",
          "name": "",
          "type": "bool"
        }
      ],
      "stateMutability": "nonpayable",
      "type": "function"
    },
    {
      "inputs": [
        {
          "internalType": "address",
          "name": "recipient",
          "type": "address"
        },
        {
          "internalType": "uint256",
          "name": "amount",
          "type": "uint256"
        }
      ],
      "name": "transfer",
      "outputs": [
        {
          "internalType": "bool",
          "name": "",
          "type": "bool"
        }
      ],
      "stateMutability": "nonpayable",
      "type": "function"
    },
    {
      "inputs": [
        {
          "internalType": "address",
          "name": "spender",
          "type": "address"
        },
        {
          "internalType": "uint256",
          "name": "amount",
          "type": "uint256"
        }
      ],
      "name": "approve",
      "outputs": [
        {
          "internalType": "bool",
          "name": "",
          "type": "bool"
        }
      ],
      "stateMutability": "nonpayable",
      "type": "function"
    },
    {
      "inputs": [
        {
          "internalType": "address",
          "name": "spender",
          "type": "address"
        },
        {
          "internalType": "address",
          "name": "recipient",
          "type": "address"
        },
        {
          "internalType": "uint256",
          "name": "amount",
          "type": "uint256"
        }
      ],
      "name": "transferFrom",
      "outputs": [
        {
          "internalType": "bool",
          "name": "",
          "type": "bool"
        }
      ],
      "stateMutability": "nonpayable",
      "type": "function"
    },
    {
      "inputs": [
        {
          "internalType": "address",
          "name": "spender",
          "type": "address"
        },
        {
          "internalType": "uint256",
          "name": "amount",
          "type": "uint256"
        }
      ],
      "name": "increaseAllowance",
      "outputs": [
        {
          "internalType": "bool",
          "name": "",
          "type": "bool"
        }
      ],
      "stateMutability": "nonpayable",
      "type": "function"
    },
    {
      "inputs": [
        {
          "internalType": "address",
          "name": "spender",
          "type": "address"
        },
        {
          "internalType": "uint256",
          "name": "amount",
          "type": "uint256"
        }
      ],
      "name": "decreaseAllowance",
      "outputs": [
        {
          "internalType": "bool",
          "name": "",
          "type": "bool"
        }
      ],
      "stateMutability": "nonpayable",
      "type": "function"
    },
    {
      "inputs": [
        {
          "internalType": "uint256",
          "name": "_amount",
          "type": "uint256"
        }
      ],
      "name": "stake",
      "outputs": [],
      "stateMutability": "nonpayable",
      "type": "function"
    },
    {
      "inputs": [
        {
          "internalType": "uint256",
          "name": "amount",
          "type": "uint256"
        },
        {
          "internalType": "uint256",
          "name": "stake_index",
          "type": "uint256"
        }
      ],
      "name": "withdrawStake",
      "outputs": [],
      "stateMutability": "nonpayable",
      "type": "function"
    }
  ],
  "bytecode": "0x60806040526103e86002553480156200001757600080fd5b50604051620035963803806200359683398181016040528101906200003d919062000373565b336000806101000a81548173ffffffffffffffffffffffffffffffffffffffff021916908373ffffffffffffffffffffffffffffffffffffffff16021790555060008054906101000a900473ffffffffffffffffffffffffffffffffffffffff1673ffffffffffffffffffffffffffffffffffffffff16600073ffffffffffffffffffffffffffffffffffffffff167f8be0079c531659141344cd1fd0a4f28419497f9722a3daafe3b4186f6b6457e060405160405180910390a3600180816001815401808255809150500390600052602060002090505083600790805190602001906200012d92919062000223565b5082600690805190602001906200014692919062000223565b5081600560006101000a81548160ff021916908360ff16021790555080600481905550600454600860003373ffffffffffffffffffffffffffffffffffffffff1673ffffffffffffffffffffffffffffffffffffffff168152602001908152602001600020819055503373ffffffffffffffffffffffffffffffffffffffff16600073ffffffffffffffffffffffffffffffffffffffff167fddf252ad1be2c89b69c2b068fc378daa952ba7f163c4a11628f55a4df523b3ef60045460405162000211919062000422565b60405180910390a350505050620005fa565b8280546200023190620004eb565b90600052602060002090601f016020900481019282620002555760008555620002a1565b82601f106200027057805160ff1916838001178555620002a1565b82800160010185558215620002a1579182015b82811115620002a057825182559160200191906001019062000283565b5b509050620002b09190620002b4565b5090565b5b80821115620002cf576000816000905550600101620002b5565b5090565b6000620002ea620002e48462000468565b6200043f565b9050828152602081018484840111156200030357600080fd5b62000310848285620004b5565b509392505050565b600082601f8301126200032a57600080fd5b81516200033c848260208601620002d3565b91505092915050565b6000815190506200035681620005c6565b92915050565b6000815190506200036d81620005e0565b92915050565b600080600080608085870312156200038a57600080fd5b600085015167ffffffffffffffff811115620003a557600080fd5b620003b38782880162000318565b945050602085015167ffffffffffffffff811115620003d157600080fd5b620003df8782880162000318565b9350506040620003f2878288016200035c565b9250506060620004058782880162000345565b91505092959194509250565b6200041c816200049e565b82525050565b600060208201905062000439600083018462000411565b92915050565b60006200044b6200045e565b905062000459828262000521565b919050565b6000604051905090565b600067ffffffffffffffff82111562000486576200048562000586565b5b6200049182620005b5565b9050602081019050919050565b6000819050919050565b600060ff82169050919050565b60005b83811015620004d5578082015181840152602081019050620004b8565b83811115620004e5576000848401525b50505050565b600060028204905060018216806200050457607f821691505b602082108114156200051b576200051a62000557565b5b50919050565b6200052c82620005b5565b810181811067ffffffffffffffff821117156200054e576200054d62000586565b5b80604052505050565b7f4e487b7100000000000000000000000000000000000000000000000000000000600052602260045260246000fd5b7f4e487b7100000000000000000000000000000000000000000000000000000000600052604160045260246000fd5b6000601f19601f8301169050919050565b620005d1816200049e565b8114620005dd57600080fd5b50565b620005eb81620004a8565b8114620005f757600080fd5b50565b612f8c806200060a6000396000f3fe608060405234801561001057600080fd5b506004361061012c5760003560e01c80638da5cb5b116100ad578063a9059cbb11610071578063a9059cbb1461035b578063dd62ed3e1461038b578063e73e14bf146103bb578063f1fdf469146103eb578063f2fde38b146104075761012c565b80638da5cb5b146102a357806395d89b41146102c15780639dc29fac146102df578063a457c2d71461030f578063a694fc3a1461033f5761012c565b806339509351116100f457806339509351146101eb57806340c10f191461021b57806370a082311461024b578063715018a61461027b578063893d20e8146102855761012c565b806306fdde0314610131578063095ea7b31461014f57806318160ddd1461017f57806323b872dd1461019d578063313ce567146101cd575b600080fd5b610139610423565b60405161014691906125c9565b60405180910390f35b6101696004803603810190610164919061216d565b6104b5565b60405161017691906125ae565b60405180910390f35b6101876104cc565b60405161019491906127cd565b60405180910390f35b6101b760048036038101906101b2919061211e565b6104d6565b6040516101c491906125ae565b60405180910390f35b6101d561063f565b6040516101e2919061281f565b60405180910390f35b6102056004803603810190610200919061216d565b610656565b60405161021291906125ae565b60405180910390f35b6102356004803603810190610230919061216d565b6106f4565b60405161024291906125ae565b60405180910390f35b610265600480360381019061026091906120b9565b610798565b60405161027291906127cd565b60405180910390f35b6102836107e1565b005b61028d61092d565b60405161029a9190612593565b60405180910390f35b6102ab61093c565b6040516102b89190612593565b60405180910390f35b6102c9610965565b6040516102d691906125c9565b60405180910390f35b6102f960048036038101906102f4919061216d565b6109f7565b60405161030691906125ae565b60405180910390f35b6103296004803603810190610324919061216d565b610a9b565b60405161033691906125ae565b60405180910390f35b610359600480360381019061035491906121a9565b610b39565b005b6103756004803603810190610370919061216d565b610bd0565b60405161038291906125ae565b60405180910390f35b6103a560048036038101906103a091906120e2565b610be7565b6040516103b291906127cd565b60405180910390f35b6103d560048036038101906103d091906120b9565b610c6e565b6040516103e291906127ab565b60405180910390f35b610405600480360381019061040091906121d2565b610f13565b005b610421600480360381019061041c91906120b9565b610f30565b005b60606007805461043290612a2c565b80601f016020809104026020016040519081016040528092919081815260200182805461045e90612a2c565b80156104ab5780601f10610480576101008083540402835291602001916104ab565b820191906000526020600020905b81548152906001019060200180831161048e57829003601f168201915b5050505050905090565b60006104c2338484610fca565b6001905092915050565b6000600454905090565b600081600960008673ffffffffffffffffffffffffffffffffffffffff1673ffffffffffffffffffffffffffffffffffffffff16815260200190815260200160002060003373ffffffffffffffffffffffffffffffffffffffff1673ffffffffffffffffffffffffffffffffffffffff168152602001908152602001600020541015610597576040517f08c379a000000000000000000000000000000000000000000000000000000000815260040161058e906126ab565b60405180910390fd5b6105a2848484611195565b610634843384600960008973ffffffffffffffffffffffffffffffffffffffff1673ffffffffffffffffffffffffffffffffffffffff16815260200190815260200160002060003373ffffffffffffffffffffffffffffffffffffffff1673ffffffffffffffffffffffffffffffffffffffff1681526020019081526020016000205461062f9190612970565b610fca565b600190509392505050565b6000600560009054906101000a900460ff16905090565b60006106ea338484600960003373ffffffffffffffffffffffffffffffffffffffff1673ffffffffffffffffffffffffffffffffffffffff16815260200190815260200160002060008873ffffffffffffffffffffffffffffffffffffffff1673ffffffffffffffffffffffffffffffffffffffff168152602001908152602001600020546106e5919061288f565b610fca565b6001905092915050565b60003373ffffffffffffffffffffffffffffffffffffffff1660008054906101000a900473ffffffffffffffffffffffffffffffffffffffff1673ffffffffffffffffffffffffffffffffffffffff1614610784576040517f08c379a000000000000000000000000000000000000000000000000000000000815260040161077b906125eb565b60405180910390fd5b61078e838361147d565b6001905092915050565b6000600860008373ffffffffffffffffffffffffffffffffffffffff1673ffffffffffffffffffffffffffffffffffffffff168152602001908152602001600020549050919050565b3373ffffffffffffffffffffffffffffffffffffffff1660008054906101000a900473ffffffffffffffffffffffffffffffffffffffff1673ffffffffffffffffffffffffffffffffffffffff161461086f576040517f08c379a0000000000000000000000000000000000000000000000000000000008152600401610866906125eb565b60405180910390fd5b600073ffffffffffffffffffffffffffffffffffffffff1660008054906101000a900473ffffffffffffffffffffffffffffffffffffffff1673ffffffffffffffffffffffffffffffffffffffff167f8be0079c531659141344cd1fd0a4f28419497f9722a3daafe3b4186f6b6457e060405160405180910390a360008060006101000a81548173ffffffffffffffffffffffffffffffffffffffff021916908373ffffffffffffffffffffffffffffffffffffffff160217905550565b600061093761093c565b905090565b60008060009054906101000a900473ffffffffffffffffffffffffffffffffffffffff16905090565b60606006805461097490612a2c565b80601f01602080910402602001604051908101604052809291908181526020018280546109a090612a2c565b80156109ed5780601f106109c2576101008083540402835291602001916109ed565b820191906000526020600020905b8154815290600101906020018083116109d057829003601f168201915b5050505050905090565b60003373ffffffffffffffffffffffffffffffffffffffff1660008054906101000a900473ffffffffffffffffffffffffffffffffffffffff1673ffffffffffffffffffffffffffffffffffffffff1614610a87576040517f08c379a0000000000000000000000000000000000000000000000000000000008152600401610a7e906125eb565b60405180910390fd5b610a9183836115f9565b6001905092915050565b6000610b2f338484600960003373ffffffffffffffffffffffffffffffffffffffff1673ffffffffffffffffffffffffffffffffffffffff16815260200190815260200160002060008873ffffffffffffffffffffffffffffffffffffffff1673ffffffffffffffffffffffffffffffffffffffff16815260200190815260200160002054610b2a9190612970565b610fca565b6001905092915050565b600860003373ffffffffffffffffffffffffffffffffffffffff1673ffffffffffffffffffffffffffffffffffffffff168152602001908152602001600020548110610bba576040517f08c379a0000000000000000000000000000000000000000000000000000000008152600401610bb19061268b565b60405180910390fd5b610bc3816117f7565b610bcd33826115f9565b50565b6000610bdd338484611195565b6001905092915050565b6000600960008473ffffffffffffffffffffffffffffffffffffffff1673ffffffffffffffffffffffffffffffffffffffff16815260200190815260200160002060008373ffffffffffffffffffffffffffffffffffffffff1673ffffffffffffffffffffffffffffffffffffffff16815260200190815260200160002054905092915050565b610c76612075565b6000806040518060400160405280600081526020016001600360008873ffffffffffffffffffffffffffffffffffffffff1673ffffffffffffffffffffffffffffffffffffffff1681526020019081526020016000205481548110610d04577f4e487b7100000000000000000000000000000000000000000000000000000000600052603260045260246000fd5b9060005260206000209060020201600101805480602002602001604051908101604052809291908181526020016000905b82821015610ddb57838290600052602060002090600402016040518060800160405290816000820160009054906101000a900473ffffffffffffffffffffffffffffffffffffffff1673ffffffffffffffffffffffffffffffffffffffff1673ffffffffffffffffffffffffffffffffffffffff168152602001600182015481526020016002820154815260200160038201548152505081526020019060010190610d35565b50505050815250905060005b816020015151811015610efe576000610e4383602001518381518110610e36577f4e487b7100000000000000000000000000000000000000000000000000000000600052603260045260246000fd5b6020026020010151611a02565b90508083602001518381518110610e83577f4e487b7100000000000000000000000000000000000000000000000000000000600052603260045260246000fd5b6020026020010151606001818152505082602001518281518110610ed0577f4e487b7100000000000000000000000000000000000000000000000000000000600052603260045260246000fd5b60200260200101516020015184610ee7919061288f565b935050600181610ef7919061288f565b9050610de7565b50818160000181815250508092505050919050565b6000610f1f8383611a44565b9050610f2b338261147d565b505050565b3373ffffffffffffffffffffffffffffffffffffffff1660008054906101000a900473ffffffffffffffffffffffffffffffffffffffff1673ffffffffffffffffffffffffffffffffffffffff1614610fbe576040517f08c379a0000000000000000000000000000000000000000000000000000000008152600401610fb5906125eb565b60405180910390fd5b610fc781611e3d565b50565b600073ffffffffffffffffffffffffffffffffffffffff168373ffffffffffffffffffffffffffffffffffffffff16141561103a576040517f08c379a00000000000000000000000000000000000000000000000000000000081526004016110319061278b565b60405180910390fd5b600073ffffffffffffffffffffffffffffffffffffffff168273ffffffffffffffffffffffffffffffffffffffff1614156110aa576040517f08c379a00000000000000000000000000000000000000000000000000000000081526004016110a1906126cb565b60405180910390fd5b80600960008573ffffffffffffffffffffffffffffffffffffffff1673ffffffffffffffffffffffffffffffffffffffff16815260200190815260200160002060008473ffffffffffffffffffffffffffffffffffffffff1673ffffffffffffffffffffffffffffffffffffffff168152602001908152602001600020819055508173ffffffffffffffffffffffffffffffffffffffff168373ffffffffffffffffffffffffffffffffffffffff167f8c5be1e5ebec7d5bd14f71427d1e84f3dd0314c0f7b2291e5b200ac8c7c3b9258360405161118891906127cd565b60405180910390a3505050565b600073ffffffffffffffffffffffffffffffffffffffff168373ffffffffffffffffffffffffffffffffffffffff161415611205576040517f08c379a00000000000000000000000000000000000000000000000000000000081526004016111fc9061274b565b60405180910390fd5b600073ffffffffffffffffffffffffffffffffffffffff168273ffffffffffffffffffffffffffffffffffffffff161415611275576040517f08c379a000000000000000000000000000000000000000000000000000000000815260040161126c906126eb565b60405180910390fd5b80600860008573ffffffffffffffffffffffffffffffffffffffff1673ffffffffffffffffffffffffffffffffffffffff1681526020019081526020016000205410156112f7576040517f08c379a00000000000000000000000000000000000000000000000000000000081526004016112ee9061260b565b60405180910390fd5b80600860008573ffffffffffffffffffffffffffffffffffffffff1673ffffffffffffffffffffffffffffffffffffffff168152602001908152602001600020546113429190612970565b600860008573ffffffffffffffffffffffffffffffffffffffff1673ffffffffffffffffffffffffffffffffffffffff1681526020019081526020016000208190555080600860008473ffffffffffffffffffffffffffffffffffffffff1673ffffffffffffffffffffffffffffffffffffffff168152602001908152602001600020546113d0919061288f565b600860008473ffffffffffffffffffffffffffffffffffffffff1673ffffffffffffffffffffffffffffffffffffffff168152602001908152602001600020819055508173ffffffffffffffffffffffffffffffffffffffff168373ffffffffffffffffffffffffffffffffffffffff167fddf252ad1be2c89b69c2b068fc378daa952ba7f163c4a11628f55a4df523b3ef8360405161147091906127cd565b60405180910390a3505050565b600073ffffffffffffffffffffffffffffffffffffffff168273ffffffffffffffffffffffffffffffffffffffff1614156114ed576040517f08c379a00000000000000000000000000000000000000000000000000000000081526004016114e49061262b565b60405180910390fd5b806004546114fb919061288f565b60048190555080600860008473ffffffffffffffffffffffffffffffffffffffff1673ffffffffffffffffffffffffffffffffffffffff1681526020019081526020016000205461154c919061288f565b600860008473ffffffffffffffffffffffffffffffffffffffff1673ffffffffffffffffffffffffffffffffffffffff168152602001908152602001600020819055508173ffffffffffffffffffffffffffffffffffffffff16600073ffffffffffffffffffffffffffffffffffffffff167fddf252ad1be2c89b69c2b068fc378daa952ba7f163c4a11628f55a4df523b3ef836040516115ed91906127cd565b60405180910390a35050565b600073ffffffffffffffffffffffffffffffffffffffff168273ffffffffffffffffffffffffffffffffffffffff161415611669576040517f08c379a00000000000000000000000000000000000000000000000000000000081526004016116609061266b565b60405180910390fd5b80600860008473ffffffffffffffffffffffffffffffffffffffff1673ffffffffffffffffffffffffffffffffffffffff1681526020019081526020016000205410156116eb576040517f08c379a00000000000000000000000000000000000000000000000000000000081526004016116e29061270b565b60405180910390fd5b80600860008473ffffffffffffffffffffffffffffffffffffffff1673ffffffffffffffffffffffffffffffffffffffff168152602001908152602001600020546117369190612970565b600860008473ffffffffffffffffffffffffffffffffffffffff1673ffffffffffffffffffffffffffffffffffffffff16815260200190815260200160002081905550806004546117879190612970565b600481905550600073ffffffffffffffffffffffffffffffffffffffff168273ffffffffffffffffffffffffffffffffffffffff167fddf252ad1be2c89b69c2b068fc378daa952ba7f163c4a11628f55a4df523b3ef836040516117eb91906127cd565b60405180910390a35050565b6000811161183a576040517f08c379a00000000000000000000000000000000000000000000000000000000081526004016118319061272b565b60405180910390fd5b6000600360003373ffffffffffffffffffffffffffffffffffffffff1673ffffffffffffffffffffffffffffffffffffffff168152602001908152602001600020549050600042905060008214156118985761189533611f6a565b91505b600182815481106118d2577f4e487b7100000000000000000000000000000000000000000000000000000000600052603260045260246000fd5b906000526020600020906002020160010160405180608001604052803373ffffffffffffffffffffffffffffffffffffffff1681526020018581526020018381526020016000815250908060018154018082558091505060019003906000526020600020906004020160009091909190915060008201518160000160006101000a81548173ffffffffffffffffffffffffffffffffffffffff021916908373ffffffffffffffffffffffffffffffffffffffff16021790555060208201518160010155604082015181600201556060820151816003015550503373ffffffffffffffffffffffffffffffffffffffff167fb4caaf29adda3eefee3ad552a8e85058589bf834c7466cae4ee58787f70589ed8484846040516119f5939291906127e8565b60405180910390a2505050565b60006002548260200151610e10846040015142611a1f9190612970565b611a2991906128e5565b611a339190612916565b611a3d91906128e5565b9050919050565b600080600360003373ffffffffffffffffffffffffffffffffffffffff1673ffffffffffffffffffffffffffffffffffffffff168152602001908152602001600020549050600060018281548110611ac5577f4e487b7100000000000000000000000000000000000000000000000000000000600052603260045260246000fd5b90600052602060002090600202016001018481548110611b0e577f4e487b7100000000000000000000000000000000000000000000000000000000600052603260045260246000fd5b90600052602060002090600402016040518060800160405290816000820160009054906101000a900473ffffffffffffffffffffffffffffffffffffffff1673ffffffffffffffffffffffffffffffffffffffff1673ffffffffffffffffffffffffffffffffffffffff168152602001600182015481526020016002820154815260200160038201548152505090508481602001511015611be4576040517f08c379a0000000000000000000000000000000000000000000000000000000008152600401611bdb9061276b565b60405180910390fd5b6000611bef82611a02565b9050858260200151611c019190612970565b826020018181525050600082602001511415611cef5760018381548110611c51577f4e487b7100000000000000000000000000000000000000000000000000000000600052603260045260246000fd5b90600052602060002090600202016001018581548110611c9a577f4e487b7100000000000000000000000000000000000000000000000000000000600052603260045260246000fd5b9060005260206000209060040201600080820160006101000a81549073ffffffffffffffffffffffffffffffffffffffff02191690556001820160009055600282016000905560038201600090555050611e26565b816020015160018481548110611d2e577f4e487b7100000000000000000000000000000000000000000000000000000000600052603260045260246000fd5b90600052602060002090600202016001018681548110611d77577f4e487b7100000000000000000000000000000000000000000000000000000000600052603260045260246000fd5b9060005260206000209060040201600101819055504260018481548110611dc7577f4e487b7100000000000000000000000000000000000000000000000000000000600052603260045260246000fd5b90600052602060002090600202016001018681548110611e10577f4e487b7100000000000000000000000000000000000000000000000000000000600052603260045260246000fd5b9060005260206000209060040201600201819055505b8086611e32919061288f565b935050505092915050565b600073ffffffffffffffffffffffffffffffffffffffff168173ffffffffffffffffffffffffffffffffffffffff161415611ead576040517f08c379a0000000000000000000000000000000000000000000000000000000008152600401611ea49061264b565b60405180910390fd5b8073ffffffffffffffffffffffffffffffffffffffff1660008054906101000a900473ffffffffffffffffffffffffffffffffffffffff1673ffffffffffffffffffffffffffffffffffffffff167f8be0079c531659141344cd1fd0a4f28419497f9722a3daafe3b4186f6b6457e060405160405180910390a3806000806101000a81548173ffffffffffffffffffffffffffffffffffffffff021916908373ffffffffffffffffffffffffffffffffffffffff16021790555050565b60006001808160018154018082558091505003906000526020600020905050600060018080549050611f9c9190612970565b90508260018281548110611fd9577f4e487b7100000000000000000000000000000000000000000000000000000000600052603260045260246000fd5b906000526020600020906002020160000160006101000a81548173ffffffffffffffffffffffffffffffffffffffff021916908373ffffffffffffffffffffffffffffffffffffffff16021790555080600360008573ffffffffffffffffffffffffffffffffffffffff1673ffffffffffffffffffffffffffffffffffffffff1681526020019081526020016000208190555080915050919050565b604051806040016040528060008152602001606081525090565b60008135905061209e81612f28565b92915050565b6000813590506120b381612f3f565b92915050565b6000602082840312156120cb57600080fd5b60006120d98482850161208f565b91505092915050565b600080604083850312156120f557600080fd5b60006121038582860161208f565b92505060206121148582860161208f565b9150509250929050565b60008060006060848603121561213357600080fd5b60006121418682870161208f565b93505060206121528682870161208f565b9250506040612163868287016120a4565b9150509250925092565b6000806040838503121561218057600080fd5b600061218e8582860161208f565b925050602061219f858286016120a4565b9150509250929050565b6000602082840312156121bb57600080fd5b60006121c9848285016120a4565b91505092915050565b600080604083850312156121e557600080fd5b60006121f3858286016120a4565b9250506020612204858286016120a4565b9150509250929050565b600061221a83836124d4565b60808301905092915050565b61222f816129a4565b82525050565b61223e816129a4565b82525050565b600061224f8261284a565b612259818561286d565b93506122648361283a565b8060005b8381101561229557815161227c888261220e565b975061228783612860565b925050600181019050612268565b5085935050505092915050565b6122ab816129b6565b82525050565b60006122bc82612855565b6122c6818561287e565b93506122d68185602086016129f9565b6122df81612aeb565b840191505092915050565b60006122f7602a8361287e565b915061230282612afc565b604082019050919050565b600061231a60348361287e565b915061232582612b4b565b604082019050919050565b600061233d60258361287e565b915061234882612b9a565b604082019050919050565b600061236060268361287e565b915061236b82612be9565b604082019050919050565b600061238360278361287e565b915061238e82612c38565b604082019050919050565b60006123a660288361287e565b91506123b182612c87565b604082019050919050565b60006123c960348361287e565b91506123d482612cd6565b604082019050919050565b60006123ec602b8361287e565b91506123f782612d25565b604082019050919050565b600061240f60228361287e565b915061241a82612d74565b604082019050919050565b600061243260308361287e565b915061243d82612dc3565b604082019050919050565b600061245560148361287e565b915061246082612e12565b602082019050919050565b600061247860248361287e565b915061248382612e3b565b604082019050919050565b600061249b60328361287e565b91506124a682612e8a565b604082019050919050565b60006124be60328361287e565b91506124c982612ed9565b604082019050919050565b6080820160008201516124ea6000850182612226565b5060208201516124fd6020850182612566565b5060408201516125106040850182612566565b5060608201516125236060850182612566565b50505050565b60006040830160008301516125416000860182612566565b50602083015184820360208601526125598282612244565b9150508091505092915050565b61256f816129e2565b82525050565b61257e816129e2565b82525050565b61258d816129ec565b82525050565b60006020820190506125a86000830184612235565b92915050565b60006020820190506125c360008301846122a2565b92915050565b600060208201905081810360008301526125e381846122b1565b905092915050565b60006020820190508181036000830152612604816122ea565b9050919050565b600060208201905081810360008301526126248161230d565b9050919050565b6000602082019050818103600083015261264481612330565b9050919050565b6000602082019050818103600083015261266481612353565b9050919050565b6000602082019050818103600083015261268481612376565b9050919050565b600060208201905081810360008301526126a481612399565b9050919050565b600060208201905081810360008301526126c4816123bc565b9050919050565b600060208201905081810360008301526126e4816123df565b9050919050565b6000602082019050818103600083015261270481612402565b9050919050565b6000602082019050818103600083015261272481612425565b9050919050565b6000602082019050818103600083015261274481612448565b9050919050565b600060208201905081810360008301526127648161246b565b9050919050565b600060208201905081810360008301526127848161248e565b9050919050565b600060208201905081810360008301526127a4816124b1565b9050919050565b600060208201905081810360008301526127c58184612529565b905092915050565b60006020820190506127e26000830184612575565b92915050565b60006060820190506127fd6000830186612575565b61280a6020830185612575565b6128176040830184612575565b949350505050565b60006020820190506128346000830184612584565b92915050565b6000819050602082019050919050565b600081519050919050565b600081519050919050565b6000602082019050919050565b600082825260208201905092915050565b600082825260208201905092915050565b600061289a826129e2565b91506128a5836129e2565b9250827fffffffffffffffffffffffffffffffffffffffffffffffffffffffffffffffff038211156128da576128d9612a5e565b5b828201905092915050565b60006128f0826129e2565b91506128fb836129e2565b92508261290b5761290a612a8d565b5b828204905092915050565b6000612921826129e2565b915061292c836129e2565b9250817fffffffffffffffffffffffffffffffffffffffffffffffffffffffffffffffff048311821515161561296557612964612a5e565b5b828202905092915050565b600061297b826129e2565b9150612986836129e2565b92508282101561299957612998612a5e565b5b828203905092915050565b60006129af826129c2565b9050919050565b60008115159050919050565b600073ffffffffffffffffffffffffffffffffffffffff82169050919050565b6000819050919050565b600060ff82169050919050565b60005b83811015612a175780820151818401526020810190506129fc565b83811115612a26576000848401525b50505050565b60006002820490506001821680612a4457607f821691505b60208210811415612a5857612a57612abc565b5b50919050565b7f4e487b7100000000000000000000000000000000000000000000000000000000600052601160045260246000fd5b7f4e487b7100000000000000000000000000000000000000000000000000000000600052601260045260246000fd5b7f4e487b7100000000000000000000000000000000000000000000000000000000600052602260045260246000fd5b6000601f19601f8301169050919050565b7f4f776e61626c653a206f6e6c79206f776e65722063616e2063616c6c2074686960008201527f732066756e6374696f6e00000000000000000000000000000000000000000000602082015250565b7f446576546f6b656e3a2063616e74207472616e73666572206d6f72652074686160008201527f6e20796f7572206163636f756e7420686f6c6473000000000000000000000000602082015250565b7f446576546f6b656e3a2063616e6e6f74206d696e7420746f207a65726f20616460008201527f6472657373000000000000000000000000000000000000000000000000000000602082015250565b7f4f776e61626c653a206e6577206f776e657220697320746865207a65726f206160008201527f6464726573730000000000000000000000000000000000000000000000000000602082015250565b7f446576546f6b656e3a2063616e6e6f74206275726e2066726f6d207a65726f2060008201527f6164647265737300000000000000000000000000000000000000000000000000602082015250565b7f446576546f6b656e3a2043616e6e6f74207374616b65206d6f7265207468616e60008201527f20796f75206f776e000000000000000000000000000000000000000000000000602082015250565b7f446576546f6b656e3a20596f752063616e6e6f74207370656e6420746861742060008201527f6d756368206f6e2074686973206163636f756e74000000000000000000000000602082015250565b7f446576546f6b656e3a20617070726f76652063616e6e6f7420626520746f207a60008201527f65726f2061646472657373000000000000000000000000000000000000000000602082015250565b7f446576546f6b656e3a207472616e7366657220746f207a65726f20616464726560008201527f7373000000000000000000000000000000000000000000000000000000000000602082015250565b7f446576546f6b656e3a2043616e6e6f74206275726e206d6f7265207468616e2060008201527f746865206163636f756e74206f776e7300000000000000000000000000000000602082015250565b7f43616e6e6f74207374616b65206e6f7468696e67000000000000000000000000600082015250565b7f446576546f6b656e3a207472616e736665722066726f6d207a65726f2061646460008201527f7265737300000000000000000000000000000000000000000000000000000000602082015250565b7f5374616b696e673a2043616e6e6f74207769746864726177206d6f726520746860008201527f616e20796f752068617665207374616b65640000000000000000000000000000602082015250565b7f446576546f6b656e3a20617070726f76652063616e6e6f7420626520646f6e6560008201527f2066726f6d207a65726f20616464726573730000000000000000000000000000602082015250565b612f31816129a4565b8114612f3c57600080fd5b50565b612f48816129e2565b8114612f5357600080fd5b5056fea26469706673582212204447b76bc9aa6fb62848b319660b78a3b5a0c12ee88e1da6f4789a2de9d8b3a464736f6c63430008040033",
  "immutableReferences": {},
  "source": "// SPDX-License-Identifier: MIT\npragma solidity ^0.8.4;\n\nimport \"./Ownable.sol\";\nimport \"./Stakable.sol\";\n\ncontract DevToken is Ownable, Stakeable {\n\n  uint private _totalSupply;\n  uint8 private _decimals;\n  string private _symbol;\n  string private _name;\n\n  mapping (address => uint256) private _balances;\n  mapping (address => mapping (address => uint256)) private _allowances;\n\n  event Transfer(address indexed from, address indexed to, uint256 value);\n\n  event Approval(address indexed owner, address indexed spender, uint256 value);\n\n  constructor(string memory token_name, string memory short_symbol, uint8 token_decimals, uint256 token_totalSupply){\n    _name = token_name;\n    _symbol = short_symbol;\n    _decimals = token_decimals;\n    _totalSupply = token_totalSupply;\n    _balances[msg.sender] = _totalSupply;\n    emit Transfer(address(0), msg.sender, _totalSupply);\n  }\n\n  function decimals() external view returns (uint8) {\n    return _decimals;\n  }\n\n  function symbol() external view returns (string memory) {\n    return _symbol;\n  }\n\n  function name() external view returns (string memory) {\n    return _name;\n  }\n\n  function totalSupply() external view returns (uint256) {\n    return _totalSupply;\n  }\n\n  function balanceOf(address account) external view returns (uint256) {\n    return _balances[account];\n  }\n\n  function getOwner() external view returns (address) {\n    return owner();\n  }\n\n  function allowance(address owner, address spender) external view returns(uint256){\n    return _allowances[owner][spender];\n  }\n\n  function mint(address account, uint256 amount) public onlyOwner returns(bool){\n    _mint(account, amount);\n    return true;\n  }\n\n  function burn(address account, uint256 amount) public onlyOwner returns(bool) {\n    _burn(account, amount);\n    return true;\n  }\n\n  function transfer(address recipient, uint256 amount) external returns (bool) {\n    _transfer(msg.sender, recipient, amount);\n    return true;\n  }\n\n  function approve(address spender, uint256 amount) external returns (bool) {\n    _approve(msg.sender, spender, amount);\n    return true;\n  }\n\n  function transferFrom(address spender, address recipient, uint256 amount) external returns(bool){\n    require(_allowances[spender][msg.sender] >= amount, \"DevToken: You cannot spend that much on this account\");\n\n    _transfer(spender, recipient, amount);\n    _approve(spender, msg.sender, _allowances[spender][msg.sender] - amount);\n    return true;\n  }\n\n  function increaseAllowance(address spender, uint256 amount) public returns (bool) {\n    _approve(msg.sender, spender, _allowances[msg.sender][spender]+amount);\n    return true;\n  }\n\n  function decreaseAllowance(address spender, uint256 amount) public returns (bool) {\n    _approve(msg.sender, spender, _allowances[msg.sender][spender]-amount);\n    return true;\n  }\n\n  function _transfer(address sender, address recipient, uint256 amount) internal {\n    require(sender != address(0), \"DevToken: transfer from zero address\");\n    require(recipient != address(0), \"DevToken: transfer to zero address\");\n    require(_balances[sender] >= amount, \"DevToken: cant transfer more than your account holds\");\n\n    _balances[sender] = _balances[sender] - amount;\n    _balances[recipient] = _balances[recipient] + amount;\n    emit Transfer(sender, recipient, amount);\n  }\n\n  function _mint(address account, uint256 amount) internal {\n    require(account != address(0), \"DevToken: cannot mint to zero address\");\n\n    _totalSupply = _totalSupply + (amount);\n    _balances[account] = _balances[account] + amount;\n    emit Transfer(address(0), account, amount);\n  }\n\n  function _burn(address account, uint256 amount) internal {\n    require(account != address(0), \"DevToken: cannot burn from zero address\");\n    require(_balances[account] >= amount, \"DevToken: Cannot burn more than the account owns\");\n\n    _balances[account] = _balances[account] - amount;\n    _totalSupply = _totalSupply - amount;\n    emit Transfer(account, address(0), amount);\n  }\n\n  function _approve(address owner, address spender, uint256 amount) internal {\n    require(owner != address(0), \"DevToken: approve cannot be done from zero address\");\n    require(spender != address(0), \"DevToken: approve cannot be to zero address\");\n\n    _allowances[owner][spender] = amount;\n    emit Approval(owner,spender,amount);\n  }\n\n  function stake(uint256 _amount) public {\n    require(_amount < _balances[msg.sender], \"DevToken: Cannot stake more than you own\");\n\n    _stake(_amount);\n    _burn(msg.sender, _amount);\n  }\n\n  function withdrawStake(uint256 amount, uint256 stake_index) public {\n    uint256 amount_to_mint = _withdrawStake(amount, stake_index);\n    _mint(msg.sender, amount_to_mint);\n  }\n}\n",
  "sourcePath": "/home/janus/work/solidity_tutorial/dev-token/contracts/DevToken.sol",
  "compiler": {
    "name": "solc",
    "version": "0.8.4+commit.c7e474f2.Emscripten.clang"
  },
  "schemaVersion": "3.4.3",
  "updatedAt": "2021-12-23T09:20:22.092Z",
  "networkType": "ethereum",
  "devdoc": {
    "kind": "dev",
    "methods": {},
    "version": 1
  },
  "userdoc": {
    "kind": "user",
    "methods": {},
    "version": 1
  }
}