{
  "contractName": "DevToken",
  "abi": [
    {
      "inputs": [
        {
          "internalType": "string",
          "name": "token_name",
          "type": "string"
        },
        {
          "internalType": "string",
          "name": "short_symbol",
          "type": "string"
        },
        {
          "internalType": "uint8",
          "name": "token_decimals",
          "type": "uint8"
        },
        {
          "internalType": "uint256",
          "name": "token_totalSupply",
          "type": "uint256"
        }
      ],
      "stateMutability": "nonpayable",
      "type": "constructor"
    },
    {
      "anonymous": false,
      "inputs": [
        {
          "indexed": true,
          "internalType": "address",
          "name": "owner",
          "type": "address"
        },
        {
          "indexed": true,
          "internalType": "address",
          "name": "spender",
          "type": "address"
        },
        {
          "indexed": false,
          "internalType": "uint256",
          "name": "value",
          "type": "uint256"
        }
      ],
      "name": "Approval",
      "type": "event"
    },
    {
      "anonymous": false,
      "inputs": [
        {
          "indexed": true,
          "internalType": "address",
          "name": "previousOwner",
          "type": "address"
        },
        {
          "indexed": true,
          "internalType": "address",
          "name": "newOwner",
          "type": "address"
        }
      ],
      "name": "OwnershipTransferred",
      "type": "event"
    },
    {
      "anonymous": false,
      "inputs": [
        {
          "indexed": true,
          "internalType": "address",
          "name": "user",
          "type": "address"
        },
        {
          "indexed": false,
          "internalType": "uint256",
          "name": "amount",
          "type": "uint256"
        },
        {
          "indexed": false,
          "internalType": "uint256",
          "name": "index",
          "type": "uint256"
        },
        {
          "indexed": false,
          "internalType": "uint256",
          "name": "timestamp",
          "type": "uint256"
        }
      ],
      "name": "Staked",
      "type": "event"
    },
    {
      "anonymous": false,
      "inputs": [
        {
          "indexed": true,
          "internalType": "address",
          "name": "from",
          "type": "address"
        },
        {
          "indexed": true,
          "internalType": "address",
          "name": "to",
          "type": "address"
        },
        {
          "indexed": false,
          "internalType": "uint256",
          "name": "value",
          "type": "uint256"
        }
      ],
      "name": "Transfer",
      "type": "event"
    },
    {
      "inputs": [],
      "name": "owner",
      "outputs": [
        {
          "internalType": "address",
          "name": "",
          "type": "address"
        }
      ],
      "stateMutability": "view",
      "type": "function",
      "constant": true
    },
    {
      "inputs": [],
      "name": "renounceOwnership",
      "outputs": [],
      "stateMutability": "nonpayable",
      "type": "function"
    },
    {
      "inputs": [
        {
          "internalType": "address",
          "name": "newOwner",
          "type": "address"
        }
      ],
      "name": "transferOwnership",
      "outputs": [],
      "stateMutability": "nonpayable",
      "type": "function"
    },
    {
      "inputs": [],
      "name": "decimals",
      "outputs": [
        {
          "internalType": "uint8",
          "name": "",
          "type": "uint8"
        }
      ],
      "stateMutability": "view",
      "type": "function",
      "constant": true
    },
    {
      "inputs": [],
      "name": "symbol",
      "outputs": [
        {
          "internalType": "string",
          "name": "",
          "type": "string"
        }
      ],
      "stateMutability": "view",
      "type": "function",
      "constant": true
    },
    {
      "inputs": [],
      "name": "name",
      "outputs": [
        {
          "internalType": "string",
          "name": "",
          "type": "string"
        }
      ],
      "stateMutability": "view",
      "type": "function",
      "constant": true
    },
    {
      "inputs": [],
      "name": "totalSupply",
      "outputs": [
        {
          "internalType": "uint256",
          "name": "",
          "type": "uint256"
        }
      ],
      "stateMutability": "view",
      "type": "function",
      "constant": true
    },
    {
      "inputs": [
        {
          "internalType": "address",
          "name": "account",
          "type": "address"
        }
      ],
      "name": "balanceOf",
      "outputs": [
        {
          "internalType": "uint256",
          "name": "",
          "type": "uint256"
        }
      ],
      "stateMutability": "view",
      "type": "function",
      "constant": true
    },
    {
      "inputs": [],
      "name": "getOwner",
      "outputs": [
        {
          "internalType": "address",
          "name": "",
          "type": "address"
        }
      ],
      "stateMutability": "view",
      "type": "function",
      "constant": true
    },
    {
      "inputs": [
        {
          "internalType": "address",
          "name": "owner",
          "type": "address"
        },
        {
          "internalType": "address",
          "name": "spender",
          "type": "address"
        }
      ],
      "name": "allowance",
      "outputs": [
        {
          "internalType": "uint256",
          "name": "",
          "type": "uint256"
        }
      ],
      "stateMutability": "view",
      "type": "function",
      "constant": true
    },
    {
      "inputs": [
        {
          "internalType": "address",
          "name": "account",
          "type": "address"
        },
        {
          "internalType": "uint256",
          "name": "amount",
          "type": "uint256"
        }
      ],
      "name": "mint",
      "outputs": [
        {
          "internalType": "bool",
          "name": "",
          "type": "bool"
        }
      ],
      "stateMutability": "nonpayable",
      "type": "function"
    },
    {
      "inputs": [
        {
          "internalType": "address",
          "name": "account",
          "type": "address"
        },
        {
          "internalType": "uint256",
          "name": "amount",
          "type": "uint256"
        }
      ],
      "name": "burn",
      "outputs": [
        {
          "internalType": "bool",
          "name": "",
          "type": "bool"
        }
      ],
      "stateMutability": "nonpayable",
      "type": "function"
    },
    {
      "inputs": [
        {
          "internalType": "address",
          "name": "recipient",
          "type": "address"
        },
        {
          "internalType": "uint256",
          "name": "amount",
          "type": "uint256"
        }
      ],
      "name": "transfer",
      "outputs": [
        {
          "internalType": "bool",
          "name": "",
          "type": "bool"
        }
      ],
      "stateMutability": "nonpayable",
      "type": "function"
    },
    {
      "inputs": [
        {
          "internalType": "address",
          "name": "spender",
          "type": "address"
        },
        {
          "internalType": "uint256",
          "name": "amount",
          "type": "uint256"
        }
      ],
      "name": "approve",
      "outputs": [
        {
          "internalType": "bool",
          "name": "",
          "type": "bool"
        }
      ],
      "stateMutability": "nonpayable",
      "type": "function"
    },
    {
      "inputs": [
        {
          "internalType": "address",
          "name": "spender",
          "type": "address"
        },
        {
          "internalType": "address",
          "name": "recipient",
          "type": "address"
        },
        {
          "internalType": "uint256",
          "name": "amount",
          "type": "uint256"
        }
      ],
      "name": "transferFrom",
      "outputs": [
        {
          "internalType": "bool",
          "name": "",
          "type": "bool"
        }
      ],
      "stateMutability": "nonpayable",
      "type": "function"
    },
    {
      "inputs": [
        {
          "internalType": "address",
          "name": "spender",
          "type": "address"
        },
        {
          "internalType": "uint256",
          "name": "amount",
          "type": "uint256"
        }
      ],
      "name": "increaseAllowance",
      "outputs": [
        {
          "internalType": "bool",
          "name": "",
          "type": "bool"
        }
      ],
      "stateMutability": "nonpayable",
      "type": "function"
    },
    {
      "inputs": [
        {
          "internalType": "address",
          "name": "spender",
          "type": "address"
        },
        {
          "internalType": "uint256",
          "name": "amount",
          "type": "uint256"
        }
      ],
      "name": "decreaseAllowance",
      "outputs": [
        {
          "internalType": "bool",
          "name": "",
          "type": "bool"
        }
      ],
      "stateMutability": "nonpayable",
      "type": "function"
    },
    {
      "inputs": [
        {
          "internalType": "uint256",
          "name": "_amount",
          "type": "uint256"
        }
      ],
      "name": "stake",
      "outputs": [],
      "stateMutability": "nonpayable",
      "type": "function"
    }
  ],
  "bytecode": "0x60806040523480156200001157600080fd5b5060405162002afd38038062002afd83398181016040528101906200003791906200036d565b336000806101000a81548173ffffffffffffffffffffffffffffffffffffffff021916908373ffffffffffffffffffffffffffffffffffffffff16021790555060008054906101000a900473ffffffffffffffffffffffffffffffffffffffff1673ffffffffffffffffffffffffffffffffffffffff16600073ffffffffffffffffffffffffffffffffffffffff167f8be0079c531659141344cd1fd0a4f28419497f9722a3daafe3b4186f6b6457e060405160405180910390a360018081600181540180825580915050039060005260206000209050508360069080519060200190620001279291906200021d565b508260059080519060200190620001409291906200021d565b5081600460006101000a81548160ff021916908360ff16021790555080600381905550600354600760003373ffffffffffffffffffffffffffffffffffffffff1673ffffffffffffffffffffffffffffffffffffffff168152602001908152602001600020819055503373ffffffffffffffffffffffffffffffffffffffff16600073ffffffffffffffffffffffffffffffffffffffff167fddf252ad1be2c89b69c2b068fc378daa952ba7f163c4a11628f55a4df523b3ef6003546040516200020b91906200041c565b60405180910390a350505050620005f4565b8280546200022b90620004e5565b90600052602060002090601f0160209004810192826200024f57600085556200029b565b82601f106200026a57805160ff19168380011785556200029b565b828001600101855582156200029b579182015b828111156200029a5782518255916020019190600101906200027d565b5b509050620002aa9190620002ae565b5090565b5b80821115620002c9576000816000905550600101620002af565b5090565b6000620002e4620002de8462000462565b62000439565b905082815260208101848484011115620002fd57600080fd5b6200030a848285620004af565b509392505050565b600082601f8301126200032457600080fd5b815162000336848260208601620002cd565b91505092915050565b6000815190506200035081620005c0565b92915050565b6000815190506200036781620005da565b92915050565b600080600080608085870312156200038457600080fd5b600085015167ffffffffffffffff8111156200039f57600080fd5b620003ad8782880162000312565b945050602085015167ffffffffffffffff811115620003cb57600080fd5b620003d98782880162000312565b9350506040620003ec8782880162000356565b9250506060620003ff878288016200033f565b91505092959194509250565b620004168162000498565b82525050565b60006020820190506200043360008301846200040b565b92915050565b60006200044562000458565b90506200045382826200051b565b919050565b6000604051905090565b600067ffffffffffffffff82111562000480576200047f62000580565b5b6200048b82620005af565b9050602081019050919050565b6000819050919050565b600060ff82169050919050565b60005b83811015620004cf578082015181840152602081019050620004b2565b83811115620004df576000848401525b50505050565b60006002820490506001821680620004fe57607f821691505b6020821081141562000515576200051462000551565b5b50919050565b6200052682620005af565b810181811067ffffffffffffffff8211171562000548576200054762000580565b5b80604052505050565b7f4e487b7100000000000000000000000000000000000000000000000000000000600052602260045260246000fd5b7f4e487b7100000000000000000000000000000000000000000000000000000000600052604160045260246000fd5b6000601f19601f8301169050919050565b620005cb8162000498565b8114620005d757600080fd5b50565b620005e581620004a2565b8114620005f157600080fd5b50565b6124f980620006046000396000f3fe608060405234801561001057600080fd5b50600436106101165760003560e01c8063893d20e8116100a2578063a457c2d711610071578063a457c2d7146102f9578063a694fc3a14610329578063a9059cbb14610345578063dd62ed3e14610375578063f2fde38b146103a557610116565b8063893d20e81461026f5780638da5cb5b1461028d57806395d89b41146102ab5780639dc29fac146102c957610116565b8063313ce567116100e9578063313ce567146101b757806339509351146101d557806340c10f191461020557806370a0823114610235578063715018a61461026557610116565b806306fdde031461011b578063095ea7b31461013957806318160ddd1461016957806323b872dd14610187575b600080fd5b6101236103c1565b6040516101309190611cba565b60405180910390f35b610153600480360381019061014e91906119e3565b610453565b6040516101609190611c9f565b60405180910390f35b61017161046a565b60405161017e9190611e7c565b60405180910390f35b6101a1600480360381019061019c9190611994565b610474565b6040516101ae9190611c9f565b60405180910390f35b6101bf6105dd565b6040516101cc9190611ece565b60405180910390f35b6101ef60048036038101906101ea91906119e3565b6105f4565b6040516101fc9190611c9f565b60405180910390f35b61021f600480360381019061021a91906119e3565b610692565b60405161022c9190611c9f565b60405180910390f35b61024f600480360381019061024a919061192f565b610736565b60405161025c9190611e7c565b60405180910390f35b61026d61077f565b005b6102776108cb565b6040516102849190611c84565b60405180910390f35b6102956108da565b6040516102a29190611c84565b60405180910390f35b6102b3610903565b6040516102c09190611cba565b60405180910390f35b6102e360048036038101906102de91906119e3565b610995565b6040516102f09190611c9f565b60405180910390f35b610313600480360381019061030e91906119e3565b610a39565b6040516103209190611c9f565b60405180910390f35b610343600480360381019061033e9190611a1f565b610ad7565b005b61035f600480360381019061035a91906119e3565b610b6e565b60405161036c9190611c9f565b60405180910390f35b61038f600480360381019061038a9190611958565b610b85565b60405161039c9190611e7c565b60405180910390f35b6103bf60048036038101906103ba919061192f565b610c0c565b005b6060600680546103d090612017565b80601f01602080910402602001604051908101604052809291908181526020018280546103fc90612017565b80156104495780601f1061041e57610100808354040283529160200191610449565b820191906000526020600020905b81548152906001019060200180831161042c57829003601f168201915b5050505050905090565b6000610460338484610ca6565b6001905092915050565b6000600354905090565b600081600860008673ffffffffffffffffffffffffffffffffffffffff1673ffffffffffffffffffffffffffffffffffffffff16815260200190815260200160002060003373ffffffffffffffffffffffffffffffffffffffff1673ffffffffffffffffffffffffffffffffffffffff168152602001908152602001600020541015610535576040517f08c379a000000000000000000000000000000000000000000000000000000000815260040161052c90611d9c565b60405180910390fd5b610540848484610e71565b6105d2843384600860008973ffffffffffffffffffffffffffffffffffffffff1673ffffffffffffffffffffffffffffffffffffffff16815260200190815260200160002060003373ffffffffffffffffffffffffffffffffffffffff1673ffffffffffffffffffffffffffffffffffffffff168152602001908152602001600020546105cd9190611f5b565b610ca6565b600190509392505050565b6000600460009054906101000a900460ff16905090565b6000610688338484600860003373ffffffffffffffffffffffffffffffffffffffff1673ffffffffffffffffffffffffffffffffffffffff16815260200190815260200160002060008873ffffffffffffffffffffffffffffffffffffffff1673ffffffffffffffffffffffffffffffffffffffff168152602001908152602001600020546106839190611f05565b610ca6565b6001905092915050565b60003373ffffffffffffffffffffffffffffffffffffffff1660008054906101000a900473ffffffffffffffffffffffffffffffffffffffff1673ffffffffffffffffffffffffffffffffffffffff1614610722576040517f08c379a000000000000000000000000000000000000000000000000000000000815260040161071990611cdc565b60405180910390fd5b61072c8383611159565b6001905092915050565b6000600760008373ffffffffffffffffffffffffffffffffffffffff1673ffffffffffffffffffffffffffffffffffffffff168152602001908152602001600020549050919050565b3373ffffffffffffffffffffffffffffffffffffffff1660008054906101000a900473ffffffffffffffffffffffffffffffffffffffff1673ffffffffffffffffffffffffffffffffffffffff161461080d576040517f08c379a000000000000000000000000000000000000000000000000000000000815260040161080490611cdc565b60405180910390fd5b600073ffffffffffffffffffffffffffffffffffffffff1660008054906101000a900473ffffffffffffffffffffffffffffffffffffffff1673ffffffffffffffffffffffffffffffffffffffff167f8be0079c531659141344cd1fd0a4f28419497f9722a3daafe3b4186f6b6457e060405160405180910390a360008060006101000a81548173ffffffffffffffffffffffffffffffffffffffff021916908373ffffffffffffffffffffffffffffffffffffffff160217905550565b60006108d56108da565b905090565b60008060009054906101000a900473ffffffffffffffffffffffffffffffffffffffff16905090565b60606005805461091290612017565b80601f016020809104026020016040519081016040528092919081815260200182805461093e90612017565b801561098b5780601f106109605761010080835404028352916020019161098b565b820191906000526020600020905b81548152906001019060200180831161096e57829003601f168201915b5050505050905090565b60003373ffffffffffffffffffffffffffffffffffffffff1660008054906101000a900473ffffffffffffffffffffffffffffffffffffffff1673ffffffffffffffffffffffffffffffffffffffff1614610a25576040517f08c379a0000000000000000000000000000000000000000000000000000000008152600401610a1c90611cdc565b60405180910390fd5b610a2f83836112d5565b6001905092915050565b6000610acd338484600860003373ffffffffffffffffffffffffffffffffffffffff1673ffffffffffffffffffffffffffffffffffffffff16815260200190815260200160002060008873ffffffffffffffffffffffffffffffffffffffff1673ffffffffffffffffffffffffffffffffffffffff16815260200190815260200160002054610ac89190611f5b565b610ca6565b6001905092915050565b600760003373ffffffffffffffffffffffffffffffffffffffff1673ffffffffffffffffffffffffffffffffffffffff168152602001908152602001600020548110610b58576040517f08c379a0000000000000000000000000000000000000000000000000000000008152600401610b4f90611d7c565b60405180910390fd5b610b61816114d3565b610b6b33826112d5565b50565b6000610b7b338484610e71565b6001905092915050565b6000600860008473ffffffffffffffffffffffffffffffffffffffff1673ffffffffffffffffffffffffffffffffffffffff16815260200190815260200160002060008373ffffffffffffffffffffffffffffffffffffffff1673ffffffffffffffffffffffffffffffffffffffff16815260200190815260200160002054905092915050565b3373ffffffffffffffffffffffffffffffffffffffff1660008054906101000a900473ffffffffffffffffffffffffffffffffffffffff1673ffffffffffffffffffffffffffffffffffffffff1614610c9a576040517f08c379a0000000000000000000000000000000000000000000000000000000008152600401610c9190611cdc565b60405180910390fd5b610ca3816116cd565b50565b600073ffffffffffffffffffffffffffffffffffffffff168373ffffffffffffffffffffffffffffffffffffffff161415610d16576040517f08c379a0000000000000000000000000000000000000000000000000000000008152600401610d0d90611e5c565b60405180910390fd5b600073ffffffffffffffffffffffffffffffffffffffff168273ffffffffffffffffffffffffffffffffffffffff161415610d86576040517f08c379a0000000000000000000000000000000000000000000000000000000008152600401610d7d90611dbc565b60405180910390fd5b80600860008573ffffffffffffffffffffffffffffffffffffffff1673ffffffffffffffffffffffffffffffffffffffff16815260200190815260200160002060008473ffffffffffffffffffffffffffffffffffffffff1673ffffffffffffffffffffffffffffffffffffffff168152602001908152602001600020819055508173ffffffffffffffffffffffffffffffffffffffff168373ffffffffffffffffffffffffffffffffffffffff167f8c5be1e5ebec7d5bd14f71427d1e84f3dd0314c0f7b2291e5b200ac8c7c3b92583604051610e649190611e7c565b60405180910390a3505050565b600073ffffffffffffffffffffffffffffffffffffffff168373ffffffffffffffffffffffffffffffffffffffff161415610ee1576040517f08c379a0000000000000000000000000000000000000000000000000000000008152600401610ed890611e3c565b60405180910390fd5b600073ffffffffffffffffffffffffffffffffffffffff168273ffffffffffffffffffffffffffffffffffffffff161415610f51576040517f08c379a0000000000000000000000000000000000000000000000000000000008152600401610f4890611ddc565b60405180910390fd5b80600760008573ffffffffffffffffffffffffffffffffffffffff1673ffffffffffffffffffffffffffffffffffffffff168152602001908152602001600020541015610fd3576040517f08c379a0000000000000000000000000000000000000000000000000000000008152600401610fca90611cfc565b60405180910390fd5b80600760008573ffffffffffffffffffffffffffffffffffffffff1673ffffffffffffffffffffffffffffffffffffffff1681526020019081526020016000205461101e9190611f5b565b600760008573ffffffffffffffffffffffffffffffffffffffff1673ffffffffffffffffffffffffffffffffffffffff1681526020019081526020016000208190555080600760008473ffffffffffffffffffffffffffffffffffffffff1673ffffffffffffffffffffffffffffffffffffffff168152602001908152602001600020546110ac9190611f05565b600760008473ffffffffffffffffffffffffffffffffffffffff1673ffffffffffffffffffffffffffffffffffffffff168152602001908152602001600020819055508173ffffffffffffffffffffffffffffffffffffffff168373ffffffffffffffffffffffffffffffffffffffff167fddf252ad1be2c89b69c2b068fc378daa952ba7f163c4a11628f55a4df523b3ef8360405161114c9190611e7c565b60405180910390a3505050565b600073ffffffffffffffffffffffffffffffffffffffff168273ffffffffffffffffffffffffffffffffffffffff1614156111c9576040517f08c379a00000000000000000000000000000000000000000000000000000000081526004016111c090611d1c565b60405180910390fd5b806003546111d79190611f05565b60038190555080600760008473ffffffffffffffffffffffffffffffffffffffff1673ffffffffffffffffffffffffffffffffffffffff168152602001908152602001600020546112289190611f05565b600760008473ffffffffffffffffffffffffffffffffffffffff1673ffffffffffffffffffffffffffffffffffffffff168152602001908152602001600020819055508173ffffffffffffffffffffffffffffffffffffffff16600073ffffffffffffffffffffffffffffffffffffffff167fddf252ad1be2c89b69c2b068fc378daa952ba7f163c4a11628f55a4df523b3ef836040516112c99190611e7c565b60405180910390a35050565b600073ffffffffffffffffffffffffffffffffffffffff168273ffffffffffffffffffffffffffffffffffffffff161415611345576040517f08c379a000000000000000000000000000000000000000000000000000000000815260040161133c90611d5c565b60405180910390fd5b80600760008473ffffffffffffffffffffffffffffffffffffffff1673ffffffffffffffffffffffffffffffffffffffff1681526020019081526020016000205410156113c7576040517f08c379a00000000000000000000000000000000000000000000000000000000081526004016113be90611dfc565b60405180910390fd5b80600760008473ffffffffffffffffffffffffffffffffffffffff1673ffffffffffffffffffffffffffffffffffffffff168152602001908152602001600020546114129190611f5b565b600760008473ffffffffffffffffffffffffffffffffffffffff1673ffffffffffffffffffffffffffffffffffffffff16815260200190815260200160002081905550806003546114639190611f5b565b600381905550600073ffffffffffffffffffffffffffffffffffffffff168273ffffffffffffffffffffffffffffffffffffffff167fddf252ad1be2c89b69c2b068fc378daa952ba7f163c4a11628f55a4df523b3ef836040516114c79190611e7c565b60405180910390a35050565b60008111611516576040517f08c379a000000000000000000000000000000000000000000000000000000000815260040161150d90611e1c565b60405180910390fd5b6000600260003373ffffffffffffffffffffffffffffffffffffffff1673ffffffffffffffffffffffffffffffffffffffff1681526020019081526020016000205490506000429050600082141561157457611571336117fa565b91505b600182815481106115ae577f4e487b7100000000000000000000000000000000000000000000000000000000600052603260045260246000fd5b906000526020600020906002020160010160405180606001604052803373ffffffffffffffffffffffffffffffffffffffff16815260200185815260200183815250908060018154018082558091505060019003906000526020600020906003020160009091909190915060008201518160000160006101000a81548173ffffffffffffffffffffffffffffffffffffffff021916908373ffffffffffffffffffffffffffffffffffffffff160217905550602082015181600101556040820151816002015550503373ffffffffffffffffffffffffffffffffffffffff167fb4caaf29adda3eefee3ad552a8e85058589bf834c7466cae4ee58787f70589ed8484846040516116c093929190611e97565b60405180910390a2505050565b600073ffffffffffffffffffffffffffffffffffffffff168173ffffffffffffffffffffffffffffffffffffffff16141561173d576040517f08c379a000000000000000000000000000000000000000000000000000000000815260040161173490611d3c565b60405180910390fd5b8073ffffffffffffffffffffffffffffffffffffffff1660008054906101000a900473ffffffffffffffffffffffffffffffffffffffff1673ffffffffffffffffffffffffffffffffffffffff167f8be0079c531659141344cd1fd0a4f28419497f9722a3daafe3b4186f6b6457e060405160405180910390a3806000806101000a81548173ffffffffffffffffffffffffffffffffffffffff021916908373ffffffffffffffffffffffffffffffffffffffff16021790555050565b6000600180816001815401808255809150500390600052602060002090505060006001808054905061182c9190611f5b565b90508260018281548110611869577f4e487b7100000000000000000000000000000000000000000000000000000000600052603260045260246000fd5b906000526020600020906002020160000160006101000a81548173ffffffffffffffffffffffffffffffffffffffff021916908373ffffffffffffffffffffffffffffffffffffffff16021790555080600260008573ffffffffffffffffffffffffffffffffffffffff1673ffffffffffffffffffffffffffffffffffffffff1681526020019081526020016000208190555080915050919050565b60008135905061191481612495565b92915050565b600081359050611929816124ac565b92915050565b60006020828403121561194157600080fd5b600061194f84828501611905565b91505092915050565b6000806040838503121561196b57600080fd5b600061197985828601611905565b925050602061198a85828601611905565b9150509250929050565b6000806000606084860312156119a957600080fd5b60006119b786828701611905565b93505060206119c886828701611905565b92505060406119d98682870161191a565b9150509250925092565b600080604083850312156119f657600080fd5b6000611a0485828601611905565b9250506020611a158582860161191a565b9150509250929050565b600060208284031215611a3157600080fd5b6000611a3f8482850161191a565b91505092915050565b611a5181611f8f565b82525050565b611a6081611fa1565b82525050565b6000611a7182611ee9565b611a7b8185611ef4565b9350611a8b818560208601611fe4565b611a94816120a7565b840191505092915050565b6000611aac602a83611ef4565b9150611ab7826120b8565b604082019050919050565b6000611acf603483611ef4565b9150611ada82612107565b604082019050919050565b6000611af2602583611ef4565b9150611afd82612156565b604082019050919050565b6000611b15602683611ef4565b9150611b20826121a5565b604082019050919050565b6000611b38602783611ef4565b9150611b43826121f4565b604082019050919050565b6000611b5b602883611ef4565b9150611b6682612243565b604082019050919050565b6000611b7e603483611ef4565b9150611b8982612292565b604082019050919050565b6000611ba1602b83611ef4565b9150611bac826122e1565b604082019050919050565b6000611bc4602283611ef4565b9150611bcf82612330565b604082019050919050565b6000611be7603083611ef4565b9150611bf28261237f565b604082019050919050565b6000611c0a601483611ef4565b9150611c15826123ce565b602082019050919050565b6000611c2d602483611ef4565b9150611c38826123f7565b604082019050919050565b6000611c50603283611ef4565b9150611c5b82612446565b604082019050919050565b611c6f81611fcd565b82525050565b611c7e81611fd7565b82525050565b6000602082019050611c996000830184611a48565b92915050565b6000602082019050611cb46000830184611a57565b92915050565b60006020820190508181036000830152611cd48184611a66565b905092915050565b60006020820190508181036000830152611cf581611a9f565b9050919050565b60006020820190508181036000830152611d1581611ac2565b9050919050565b60006020820190508181036000830152611d3581611ae5565b9050919050565b60006020820190508181036000830152611d5581611b08565b9050919050565b60006020820190508181036000830152611d7581611b2b565b9050919050565b60006020820190508181036000830152611d9581611b4e565b9050919050565b60006020820190508181036000830152611db581611b71565b9050919050565b60006020820190508181036000830152611dd581611b94565b9050919050565b60006020820190508181036000830152611df581611bb7565b9050919050565b60006020820190508181036000830152611e1581611bda565b9050919050565b60006020820190508181036000830152611e3581611bfd565b9050919050565b60006020820190508181036000830152611e5581611c20565b9050919050565b60006020820190508181036000830152611e7581611c43565b9050919050565b6000602082019050611e916000830184611c66565b92915050565b6000606082019050611eac6000830186611c66565b611eb96020830185611c66565b611ec66040830184611c66565b949350505050565b6000602082019050611ee36000830184611c75565b92915050565b600081519050919050565b600082825260208201905092915050565b6000611f1082611fcd565b9150611f1b83611fcd565b9250827fffffffffffffffffffffffffffffffffffffffffffffffffffffffffffffffff03821115611f5057611f4f612049565b5b828201905092915050565b6000611f6682611fcd565b9150611f7183611fcd565b925082821015611f8457611f83612049565b5b828203905092915050565b6000611f9a82611fad565b9050919050565b60008115159050919050565b600073ffffffffffffffffffffffffffffffffffffffff82169050919050565b6000819050919050565b600060ff82169050919050565b60005b83811015612002578082015181840152602081019050611fe7565b83811115612011576000848401525b50505050565b6000600282049050600182168061202f57607f821691505b6020821081141561204357612042612078565b5b50919050565b7f4e487b7100000000000000000000000000000000000000000000000000000000600052601160045260246000fd5b7f4e487b7100000000000000000000000000000000000000000000000000000000600052602260045260246000fd5b6000601f19601f8301169050919050565b7f4f776e61626c653a206f6e6c79206f776e65722063616e2063616c6c2074686960008201527f732066756e6374696f6e00000000000000000000000000000000000000000000602082015250565b7f446576546f6b656e3a2063616e74207472616e73666572206d6f72652074686160008201527f6e20796f7572206163636f756e7420686f6c6473000000000000000000000000602082015250565b7f446576546f6b656e3a2063616e6e6f74206d696e7420746f207a65726f20616460008201527f6472657373000000000000000000000000000000000000000000000000000000602082015250565b7f4f776e61626c653a206e6577206f776e657220697320746865207a65726f206160008201527f6464726573730000000000000000000000000000000000000000000000000000602082015250565b7f446576546f6b656e3a2063616e6e6f74206275726e2066726f6d207a65726f2060008201527f6164647265737300000000000000000000000000000000000000000000000000602082015250565b7f446576546f6b656e3a2043616e6e6f74207374616b65206d6f7265207468616e60008201527f20796f75206f776e000000000000000000000000000000000000000000000000602082015250565b7f446576546f6b656e3a20596f752063616e6e6f74207370656e6420746861742060008201527f6d756368206f6e2074686973206163636f756e74000000000000000000000000602082015250565b7f446576546f6b656e3a20617070726f76652063616e6e6f7420626520746f207a60008201527f65726f2061646472657373000000000000000000000000000000000000000000602082015250565b7f446576546f6b656e3a207472616e7366657220746f207a65726f20616464726560008201527f7373000000000000000000000000000000000000000000000000000000000000602082015250565b7f446576546f6b656e3a2043616e6e6f74206275726e206d6f7265207468616e2060008201527f746865206163636f756e74206f776e7300000000000000000000000000000000602082015250565b7f43616e6e6f74207374616b65206e6f7468696e67000000000000000000000000600082015250565b7f446576546f6b656e3a207472616e736665722066726f6d207a65726f2061646460008201527f7265737300000000000000000000000000000000000000000000000000000000602082015250565b7f446576546f6b656e3a20617070726f76652063616e6e6f7420626520646f6e6560008201527f2066726f6d207a65726f20616464726573730000000000000000000000000000602082015250565b61249e81611f8f565b81146124a957600080fd5b50565b6124b581611fcd565b81146124c057600080fd5b5056fea26469706673582212209450d986c17bf2f6acb9bae97706ecf0b57cb402bd17c90750a6d13147de8f8164736f6c63430008040033",
  "immutableReferences": {},
  "source": "// SPDX-License-Identifier: MIT\npragma solidity ^0.8.4;\n\nimport \"./Ownable.sol\";\nimport \"./Stakable.sol\";\n\ncontract DevToken is Ownable, Stakeable {\n\n  uint private _totalSupply;\n  uint8 private _decimals;\n  string private _symbol;\n  string private _name;\n\n  mapping (address => uint256) private _balances;\n  mapping (address => mapping (address => uint256)) private _allowances;\n\n  event Transfer(address indexed from, address indexed to, uint256 value);\n\n  event Approval(address indexed owner, address indexed spender, uint256 value);\n\n  constructor(string memory token_name, string memory short_symbol, uint8 token_decimals, uint256 token_totalSupply){\n    _name = token_name;\n    _symbol = short_symbol;\n    _decimals = token_decimals;\n    _totalSupply = token_totalSupply;\n    _balances[msg.sender] = _totalSupply;\n    emit Transfer(address(0), msg.sender, _totalSupply);\n  }\n\n  function decimals() external view returns (uint8) {\n    return _decimals;\n  }\n\n  function symbol() external view returns (string memory) {\n    return _symbol;\n  }\n\n  function name() external view returns (string memory) {\n    return _name;\n  }\n\n  function totalSupply() external view returns (uint256) {\n    return _totalSupply;\n  }\n\n  function balanceOf(address account) external view returns (uint256) {\n    return _balances[account];\n  }\n\n  function getOwner() external view returns (address) {\n    return owner();\n  }\n\n  function allowance(address owner, address spender) external view returns(uint256){\n    return _allowances[owner][spender];\n  }\n\n  function mint(address account, uint256 amount) public onlyOwner returns(bool){\n    _mint(account, amount);\n    return true;\n  }\n\n  function burn(address account, uint256 amount) public onlyOwner returns(bool) {\n    _burn(account, amount);\n    return true;\n  }\n\n  function transfer(address recipient, uint256 amount) external returns (bool) {\n    _transfer(msg.sender, recipient, amount);\n    return true;\n  }\n\n  function approve(address spender, uint256 amount) external returns (bool) {\n    _approve(msg.sender, spender, amount);\n    return true;\n  }\n\n  function transferFrom(address spender, address recipient, uint256 amount) external returns(bool){\n    require(_allowances[spender][msg.sender] >= amount, \"DevToken: You cannot spend that much on this account\");\n\n    _transfer(spender, recipient, amount);\n    _approve(spender, msg.sender, _allowances[spender][msg.sender] - amount);\n    return true;\n  }\n\n  function increaseAllowance(address spender, uint256 amount) public returns (bool) {\n    _approve(msg.sender, spender, _allowances[msg.sender][spender]+amount);\n    return true;\n  }\n\n  function decreaseAllowance(address spender, uint256 amount) public returns (bool) {\n    _approve(msg.sender, spender, _allowances[msg.sender][spender]-amount);\n    return true;\n  }\n\n  function _transfer(address sender, address recipient, uint256 amount) internal {\n    require(sender != address(0), \"DevToken: transfer from zero address\");\n    require(recipient != address(0), \"DevToken: transfer to zero address\");\n    require(_balances[sender] >= amount, \"DevToken: cant transfer more than your account holds\");\n\n    _balances[sender] = _balances[sender] - amount;\n    _balances[recipient] = _balances[recipient] + amount;\n    emit Transfer(sender, recipient, amount);\n  }\n\n  function _mint(address account, uint256 amount) internal {\n    require(account != address(0), \"DevToken: cannot mint to zero address\");\n\n    _totalSupply = _totalSupply + (amount);\n    _balances[account] = _balances[account] + amount;\n    emit Transfer(address(0), account, amount);\n  }\n\n  function _burn(address account, uint256 amount) internal {\n    require(account != address(0), \"DevToken: cannot burn from zero address\");\n    require(_balances[account] >= amount, \"DevToken: Cannot burn more than the account owns\");\n\n    _balances[account] = _balances[account] - amount;\n    _totalSupply = _totalSupply - amount;\n    emit Transfer(account, address(0), amount);\n  }\n\n  function _approve(address owner, address spender, uint256 amount) internal {\n    require(owner != address(0), \"DevToken: approve cannot be done from zero address\");\n    require(spender != address(0), \"DevToken: approve cannot be to zero address\");\n\n    _allowances[owner][spender] = amount;\n    emit Approval(owner,spender,amount);\n  }\n\n  function stake(uint256 _amount) public {\n    require(_amount < _balances[msg.sender], \"DevToken: Cannot stake more than you own\");\n\n    _stake(_amount);\n    _burn(msg.sender, _amount);\n  }\n}\n",
  "sourcePath": "/home/janus/work/solidity_tutorial/dev-token/contracts/DevToken.sol",
  "compiler": {
    "name": "solc",
    "version": "0.8.4+commit.c7e474f2.Emscripten.clang"
  },
  "schemaVersion": "3.4.3",
  "updatedAt": "2021-12-21T09:44:51.134Z",
  "networkType": "ethereum",
  "devdoc": {
    "kind": "dev",
    "methods": {},
    "version": 1
  },
  "userdoc": {
    "kind": "user",
    "methods": {},
    "version": 1
  }
}