{
  "contractName": "Stakeable",
  "abi": [
    {
      "inputs": [],
      "stateMutability": "nonpayable",
      "type": "constructor"
    },
    {
      "anonymous": false,
      "inputs": [
        {
          "indexed": true,
          "internalType": "address",
          "name": "user",
          "type": "address"
        },
        {
          "indexed": false,
          "internalType": "uint256",
          "name": "amount",
          "type": "uint256"
        },
        {
          "indexed": false,
          "internalType": "uint256",
          "name": "index",
          "type": "uint256"
        },
        {
          "indexed": false,
          "internalType": "uint256",
          "name": "timestamp",
          "type": "uint256"
        }
      ],
      "name": "Staked",
      "type": "event"
    },
    {
      "inputs": [
        {
          "internalType": "address",
          "name": "_staker",
          "type": "address"
        }
      ],
      "name": "hasStake",
      "outputs": [
        {
          "components": [
            {
              "internalType": "uint256",
              "name": "total_amount",
              "type": "uint256"
            },
            {
              "components": [
                {
                  "internalType": "address",
                  "name": "user",
                  "type": "address"
                },
                {
                  "internalType": "uint256",
                  "name": "amount",
                  "type": "uint256"
                },
                {
                  "internalType": "uint256",
                  "name": "since",
                  "type": "uint256"
                },
                {
                  "internalType": "uint256",
                  "name": "claimable",
                  "type": "uint256"
                }
              ],
              "internalType": "struct Stakeable.Stake[]",
              "name": "stakes",
              "type": "tuple[]"
            }
          ],
          "internalType": "struct Stakeable.StakingSummary",
          "name": "",
          "type": "tuple"
        }
      ],
      "stateMutability": "view",
      "type": "function"
    }
  ],
  "bytecode": "0x60806040526103e860015534801561001657600080fd5b5060006001816001815401808255809150500390600052602060002090505061071c806100446000396000f3fe608060405234801561001057600080fd5b506004361061002b5760003560e01c8063e73e14bf14610030575b600080fd5b61004a60048036038101906100459190610376565b610060565b60405161005791906104c5565b60405180910390f35b610068610347565b6000806040518060400160405280600081526020016000600260008873ffffffffffffffffffffffffffffffffffffffff1673ffffffffffffffffffffffffffffffffffffffff16815260200190815260200160002054815481106100f6577f4e487b7100000000000000000000000000000000000000000000000000000000600052603260045260246000fd5b9060005260206000209060020201600101805480602002602001604051908101604052809291908181526020016000905b828210156101cd57838290600052602060002090600402016040518060800160405290816000820160009054906101000a900473ffffffffffffffffffffffffffffffffffffffff1673ffffffffffffffffffffffffffffffffffffffff1673ffffffffffffffffffffffffffffffffffffffff168152602001600182015481526020016002820154815260200160038201548152505081526020019060010190610127565b50505050815250905060005b8160200151518110156102f057600061023583602001518381518110610228577f4e487b7100000000000000000000000000000000000000000000000000000000600052603260045260246000fd5b6020026020010151610305565b90508083602001518381518110610275577f4e487b7100000000000000000000000000000000000000000000000000000000600052603260045260246000fd5b60200260200101516060018181525050826020015182815181106102c2577f4e487b7100000000000000000000000000000000000000000000000000000000600052603260045260246000fd5b602002602001015160200151846102d99190610520565b9350506001816102e99190610520565b90506101d9565b50818160000181815250508092505050919050565b60006001548260200151610e108460400151426103229190610601565b61032c9190610576565b61033691906105a7565b6103409190610576565b9050919050565b604051806040016040528060008152602001606081525090565b600081359050610370816106cf565b92915050565b60006020828403121561038857600080fd5b600061039684828501610361565b91505092915050565b60006103ab8383610424565b60808301905092915050565b6103c081610635565b82525050565b60006103d1826104f7565b6103db818561050f565b93506103e6836104e7565b8060005b838110156104175781516103fe888261039f565b975061040983610502565b9250506001810190506103ea565b5085935050505092915050565b60808201600082015161043a60008501826103b7565b50602082015161044d60208501826104b6565b50604082015161046060408501826104b6565b50606082015161047360608501826104b6565b50505050565b600060408301600083015161049160008601826104b6565b50602083015184820360208601526104a982826103c6565b9150508091505092915050565b6104bf81610667565b82525050565b600060208201905081810360008301526104df8184610479565b905092915050565b6000819050602082019050919050565b600081519050919050565b6000602082019050919050565b600082825260208201905092915050565b600061052b82610667565b915061053683610667565b9250827fffffffffffffffffffffffffffffffffffffffffffffffffffffffffffffffff0382111561056b5761056a610671565b5b828201905092915050565b600061058182610667565b915061058c83610667565b92508261059c5761059b6106a0565b5b828204905092915050565b60006105b282610667565b91506105bd83610667565b9250817fffffffffffffffffffffffffffffffffffffffffffffffffffffffffffffffff04831182151516156105f6576105f5610671565b5b828202905092915050565b600061060c82610667565b915061061783610667565b92508282101561062a57610629610671565b5b828203905092915050565b600061064082610647565b9050919050565b600073ffffffffffffffffffffffffffffffffffffffff82169050919050565b6000819050919050565b7f4e487b7100000000000000000000000000000000000000000000000000000000600052601160045260246000fd5b7f4e487b7100000000000000000000000000000000000000000000000000000000600052601260045260246000fd5b6106d881610635565b81146106e357600080fd5b5056fea264697066735822122021eed7ebfd692e4f55ccd9789350aa57ecd377e085b1dec216ec13c5fffa201564736f6c63430008040033",
  "immutableReferences": {},
  "source": "// SPDX-License-Identifier: MIT\npragma solidity ^0.8.4;\n\ncontract Stakeable {\n\n  constructor() {\n    stakeholders.push();\n  }\n\n  struct Stake {\n    address user;\n    uint256 amount;\n    uint256 since;\n    uint256 claimable;\n  }\n\n  struct Stakeholder {\n    address user;\n    Stake[] address_stakes;\n  }\n\n  struct StakingSummary {\n    uint256 total_amount;\n    Stake[] stakes;\n  }\n\n  Stakeholder[] internal stakeholders;\n\n  uint256 internal rewardPerHour = 1000;\n\n  mapping(address => uint256) internal stakes;\n\n  event Staked(address indexed user, uint256 amount, uint256 index, uint256 timestamp);\n\n  function _addStakeholder(address staker) internal returns (uint256) {\n    stakeholders.push();\n    uint256 userIndex = stakeholders.length - 1;\n    stakeholders[userIndex].user = staker;\n    stakes[staker] = userIndex;\n    return userIndex;\n  }\n\n  function _stake(uint256 _amount) internal {\n    require(_amount > 0, \"Cannot stake nothing\");\n\n    uint256 index = stakes[msg.sender];\n    uint256 timestamp = block.timestamp;\n\n    if (index == 0) {\n      index = _addStakeholder(msg.sender);\n    }\n\n    stakeholders[index].address_stakes.push(Stake(msg.sender, _amount, timestamp, 0));\n    emit Staked(msg.sender, _amount, index, timestamp);\n  }\n\n  function calculateStakeReward(Stake memory _current_stake) internal view returns(uint256) {\n    return (((block.timestamp - _current_stake.since) / 1 hours) * _current_stake.amount) / rewardPerHour;\n  }\n\n  function _withdrawStake(uint256 amount, uint256 index) internal returns (uint256) {\n    uint256 user_index = stakes[msg.sender];\n    Stake memory current_stake = stakeholders[user_index].address_stakes[index];\n    require(current_stake.amount >= amount, \"Staking: Cannot withdraw more than you have staked\");\n    uint256 reward = calculateStakeReward(current_stake);\n    current_stake.amount = current_stake.amount - amount;\n    if (current_stake.amount == 0) {\n      delete stakeholders[user_index].address_stakes[index];\n    } else {\n      stakeholders[user_index].address_stakes[index].amount = current_stake.amount;\n      stakeholders[user_index].address_stakes[index].since = block.timestamp;\n    }\n    return amount+reward;\n  }\n\n  function hasStake(address _staker) public view returns (StakingSummary memory) {\n    uint256 totalStakeAmount;\n    StakingSummary memory summary = StakingSummary(0, stakeholders[stakes[_staker]].address_stakes);\n    for (uint256 s = 0; s < summary.stakes.length; s += 1) {\n      uint256 availableReward = calculateStakeReward(summary.stakes[s]);\n      summary.stakes[s].claimable = availableReward;\n      totalStakeAmount = totalStakeAmount + summary.stakes[s].amount;\n    }\n    summary.total_amount = totalStakeAmount;\n    return summary;\n  }\n}",
  "sourcePath": "/home/janus/work/solidity_tutorial/dev-token/contracts/Stakable.sol",
  "compiler": {
    "name": "solc",
    "version": "0.8.4+commit.c7e474f2.Emscripten.clang"
  },
  "schemaVersion": "3.4.3",
  "updatedAt": "2021-12-23T09:19:56.868Z",
  "devdoc": {
    "kind": "dev",
    "methods": {},
    "version": 1
  },
  "userdoc": {
    "kind": "user",
    "methods": {},
    "version": 1
  }
}